:100000000C942A000C943F000C943F000C943F0089
:100010000C943F000C943F000C943F000C943F0064
:100020000C943F000C943F000C943F000C943F0054
:100030000C943F000C943F000C943F000C943F0044
:100040000C943F000C943F000C943F000C943F0034
:100050000C943F0011241FBECFE5D8E0DEBFCDBF1A
:1000600010E0A0E6B0E0E0E2F2E002C005900D9200
:10007000AA38B107D9F70E94F2000C940E010C9433
:10008000000085BB8BB38E7F8BBB8BB38D7F8BBB0F
:100090008BB384608BBB89EF90E00197F1F700C0D0
:1000A00000008BB38B7F8BBB89EF90E00197F1F75A
:1000B00000C00000089585BB8BB381608BBB8BB300
:1000C0008D7F8BBB8BB384608BBB89EF90E00197F6
:1000D000F1F700C000008BB38B7F8BBB89EF90E002
:1000E0000197F1F700C0000008958FEF84BB8AB339
:1000F00087608ABB87E893E10197F1F700C00000B1
:1001000088E30E9441008EE00E94410081E00E944D
:10011000410083EF91E00197F1F700C000000895DE
:100120000F931F93CF93DF938C01C0E0D0E009C001
:100130000E945B0087EA91E60197F1F700C000009A
:100140002196F801EC0FFD1F80818111F1CFDF9125
:10015000CF911F910F910895EDEC8E9FE12D112409
:10016000E695E695E6952E2F220F922F990F990F7F
:10017000920FA82FA91BB0E0A05ABF4F8C9188BB4B
:10018000F0E0E05AFF4F808182BB08950F931F93E8
:10019000CF93C82F8A018BB38F718BBB2BB381E0B8
:1001A00090E002C0880F991F6A95E2F7822B8BBB03
:1001B00081E00E944100C8010E9490000DC08C2F78
:1001C0000E94AC002FE38DE093E0215080409040EE
:1001D000E1F700C00000C150CC238CF7CF911F91F4
:1001E0000F9108958AB3876E8ABB8FEF84BB87BB5C
:1001F00081BB0E9475004AE650E065E08EE10E94F6
:10020000C60045E750E066E08AE00E94C60040E88C
:1002100050E067E08EE10E94C600EDCFF894FFCF7A
:100220003F065B4F666D7D077F6F202020202020DA
:1002300053544F5000202020202052454144590063
:0A02400020202020202020474F003E
:00000001FF
